{
  "contractName": "LockLiquidity",
  "abi": [
    {
      "inputs": [],
      "stateMutability": "nonpayable",
      "type": "constructor"
    },
    {
      "anonymous": false,
      "inputs": [
        {
          "indexed": false,
          "internalType": "uint256",
          "name": "amount",
          "type": "uint256"
        },
        {
          "indexed": false,
          "internalType": "uint256",
          "name": "duration",
          "type": "uint256"
        }
      ],
      "name": "LiquidityLocked",
      "type": "event"
    },
    {
      "anonymous": false,
      "inputs": [
        {
          "indexed": false,
          "internalType": "uint256",
          "name": "amount",
          "type": "uint256"
        }
      ],
      "name": "LiquidityUnlocked",
      "type": "event"
    },
    {
      "anonymous": false,
      "inputs": [
        {
          "indexed": true,
          "internalType": "address",
          "name": "previousOwner",
          "type": "address"
        },
        {
          "indexed": true,
          "internalType": "address",
          "name": "newOwner",
          "type": "address"
        }
      ],
      "name": "OwnershipTransferred",
      "type": "event"
    },
    {
      "inputs": [],
      "name": "lockAmount",
      "outputs": [
        {
          "internalType": "uint256",
          "name": "",
          "type": "uint256"
        }
      ],
      "stateMutability": "view",
      "type": "function"
    },
    {
      "inputs": [],
      "name": "lockDate",
      "outputs": [
        {
          "internalType": "uint256",
          "name": "",
          "type": "uint256"
        }
      ],
      "stateMutability": "view",
      "type": "function"
    },
    {
      "inputs": [],
      "name": "lockDuration",
      "outputs": [
        {
          "internalType": "uint256",
          "name": "",
          "type": "uint256"
        }
      ],
      "stateMutability": "view",
      "type": "function"
    },
    {
      "inputs": [],
      "name": "owner",
      "outputs": [
        {
          "internalType": "address",
          "name": "",
          "type": "address"
        }
      ],
      "stateMutability": "view",
      "type": "function"
    },
    {
      "inputs": [],
      "name": "renounceOwnership",
      "outputs": [],
      "stateMutability": "nonpayable",
      "type": "function"
    },
    {
      "inputs": [
        {
          "internalType": "address",
          "name": "newOwner",
          "type": "address"
        }
      ],
      "name": "transferOwnership",
      "outputs": [],
      "stateMutability": "nonpayable",
      "type": "function"
    },
    {
      "inputs": [
        {
          "internalType": "address",
          "name": "_lptoken",
          "type": "address"
        },
        {
          "internalType": "uint256",
          "name": "_amount",
          "type": "uint256"
        }
      ],
      "name": "lockLiquidity",
      "outputs": [],
      "stateMutability": "nonpayable",
      "type": "function"
    },
    {
      "inputs": [
        {
          "internalType": "address",
          "name": "_lptoken",
          "type": "address"
        }
      ],
      "name": "unlockLiquidity",
      "outputs": [],
      "stateMutability": "nonpayable",
      "type": "function"
    }
  ],
  "bytecode": "0x608060405262278d0060015534801561001757600080fd5b506000610022610071565b600080546001600160a01b0319166001600160a01b0383169081178255604051929350917f8be0079c531659141344cd1fd0a4f28419497f9722a3daafe3b4186f6b6457e0908290a350610075565b3390565b610958806100846000396000f3fe608060405234801561001057600080fd5b50600436106100885760003560e01c80638da5cb5b1161005b5780638da5cb5b146100e5578063d58c66ab14610109578063d8df5dc11461012f578063f2fde38b1461013757610088565b8063045544431461008d578063649ae9c6146100a75780636a336304146100af578063715018a6146100dd575b600080fd5b61009561015d565b60408051918252519081900360200190f35b610095610163565b6100db600480360360408110156100c557600080fd5b506001600160a01b038135169060200135610169565b005b6100db610223565b6100ed6102c5565b604080516001600160a01b039092168252519081900360200190f35b6100db6004803603602081101561011f57600080fd5b50356001600160a01b03166102d4565b6100956103e0565b6100db6004803603602081101561014d57600080fd5b50356001600160a01b03166103e6565b60015481565b60025481565b61017161044a565b6000546001600160a01b039081169116146101c1576040805162461bcd60e51b81526020600482018190526024820152600080516020610903833981519152604482015290519081900360640190fd5b816101d76001600160a01b03821633308561044e565b42600255600382905560015460408051848152602081019290925280517fcb75aa8347c098d414422e8cafbbe4e2c1a229f5b27bf425984b2b9792aa787a9281900390910190a1505050565b61022b61044a565b6000546001600160a01b0390811691161461027b576040805162461bcd60e51b81526020600482018190526024820152600080516020610903833981519152604482015290519081900360640190fd5b600080546040516001600160a01b03909116907f8be0079c531659141344cd1fd0a4f28419497f9722a3daafe3b4186f6b6457e0908390a3600080546001600160a01b0319169055565b6000546001600160a01b031690565b6102dc61044a565b6000546001600160a01b0390811691161461032c576040805162461bcd60e51b81526020600482018190526024820152600080516020610903833981519152604482015290519081900360640190fd5b60015460025461033b916104ae565b421015610387576040805162461bcd60e51b815260206004820152601560248201527463616e277420756e6c6f636b20796574206475646560581b604482015290519081900360640190fd5b806103a76103936102c5565b6003546001600160a01b038416919061050f565b60035460408051918252517f067f6c2397803e8575322da6cadcc91f0cac1d686ede18d96369e2be2856925f9181900360200190a15050565b60035481565b6103ee61044a565b6000546001600160a01b0390811691161461043e576040805162461bcd60e51b81526020600482018190526024820152600080516020610903833981519152604482015290519081900360640190fd5b61044781610566565b50565b3390565b604080516001600160a01b0380861660248301528416604482015260648082018490528251808303909101815260849091019091526020810180516001600160e01b03166323b872dd60e01b1790526104a8908590610606565b50505050565b600082820183811015610508576040805162461bcd60e51b815260206004820152601b60248201527f536166654d6174683a206164646974696f6e206f766572666c6f770000000000604482015290519081900360640190fd5b9392505050565b604080516001600160a01b038416602482015260448082018490528251808303909101815260649091019091526020810180516001600160e01b031663a9059cbb60e01b179052610561908490610606565b505050565b6001600160a01b0381166105ab5760405162461bcd60e51b81526004018080602001828103825260268152602001806108dd6026913960400191505060405180910390fd5b600080546040516001600160a01b03808516939216917f8be0079c531659141344cd1fd0a4f28419497f9722a3daafe3b4186f6b6457e091a3600080546001600160a01b0319166001600160a01b0392909216919091179055565b606061065b826040518060400160405280602081526020017f5361666542455032303a206c6f772d6c6576656c2063616c6c206661696c6564815250856001600160a01b03166106b79092919063ffffffff16565b8051909150156105615780806020019051602081101561067a57600080fd5b50516105615760405162461bcd60e51b815260040180806020018281038252602a8152602001806108b3602a913960400191505060405180910390fd5b60606106c684846000856106ce565b949350505050565b60606106d985610879565b61072a576040805162461bcd60e51b815260206004820152601d60248201527f416464726573733a2063616c6c20746f206e6f6e2d636f6e7472616374000000604482015290519081900360640190fd5b60006060866001600160a01b031685876040518082805190602001908083835b602083106107695780518252601f19909201916020918201910161074a565b6001836020036101000a03801982511681845116808217855250505050505090500191505060006040518083038185875af1925050503d80600081146107cb576040519150601f19603f3d011682016040523d82523d6000602084013e6107d0565b606091505b509150915081156107e45791506106c69050565b8051156107f45780518082602001fd5b8360405162461bcd60e51b81526004018080602001828103825283818151815260200191508051906020019080838360005b8381101561083e578181015183820152602001610826565b50505050905090810190601f16801561086b5780820380516001836020036101000a031916815260200191505b509250505060405180910390fd5b6000813f7fc5d2460186f7233c927e7db2dcc703c0e500b653ca82273b7bfad8045d85a4708181148015906106c657505015159291505056fe5361666542455032303a204245503230206f7065726174696f6e20646964206e6f7420737563636565644f776e61626c653a206e6577206f776e657220697320746865207a65726f20616464726573734f776e61626c653a2063616c6c6572206973206e6f7420746865206f776e6572a26469706673582212204ab4d18afabd2bc1205d92dcbe6f00a555416c9ecc22786a0b5fd4aa6bb030b864736f6c634300060c0033",
  "immutableReferences": {},
  "source": "pragma solidity 0.6.12;\n\nimport \"@pancakeswap/pancake-swap-lib/contracts/math/SafeMath.sol\";\nimport \"@pancakeswap/pancake-swap-lib/contracts/access/Ownable.sol\";\nimport \"@pancakeswap/pancake-swap-lib/contracts/token/BEP20/SafeBEP20.sol\";\n\ncontract LockLiquidity is Ownable {\n    using SafeMath for uint256;\n    using SafeBEP20 for IBEP20;\n\n    uint256 public lockDuration = 30 days; //change to any amount\n    uint256 public lockDate;\n    uint256 public lockAmount;\n\n    event LiquidityLocked(uint256 amount, uint256 duration);\n    event LiquidityUnlocked(uint256 amount);\n\n    constructor(\n    ) public {\n    }\n\n    function lockLiquidity(address _lptoken, uint256 _amount) external onlyOwner{\n        IBEP20 lptoken = IBEP20(_lptoken);\n        lptoken.safeTransferFrom(msg.sender,address(this),_amount);\n        lockDate = block.timestamp;\n        lockAmount = _amount;\n        emit LiquidityLocked(_amount, lockDuration);\n\n    }\n\n    function unlockLiquidity(address _lptoken) external onlyOwner {\n        require(block.timestamp >= lockDate.add(lockDuration),\"can't unlock yet dude\");\n         IBEP20 lptoken = IBEP20(_lptoken);\n        lptoken.safeTransfer(address(owner()),lockAmount);\n        emit LiquidityUnlocked(lockAmount);\n    }\n\n}\n",
  "sourcePath": "/Users/zagj/zn-project/ETH/krypton/contracts/contracts/LockLiquidity.sol",
  "compiler": {
    "name": "solc",
    "version": "0.6.12+commit.27d51765.Emscripten.clang"
  },
  "schemaVersion": "3.3.3",
  "updatedAt": "2021-03-01T07:50:50.390Z",
  "devdoc": {
    "kind": "dev",
    "methods": {
      "owner()": {
        "details": "Returns the address of the current owner."
      },
      "renounceOwnership()": {
        "details": "Leaves the contract without owner. It will not be possible to call `onlyOwner` functions anymore. Can only be called by the current owner. NOTE: Renouncing ownership will leave the contract without an owner, thereby removing any functionality that is only available to the owner."
      },
      "transferOwnership(address)": {
        "details": "Transfers ownership of the contract to a new account (`newOwner`). Can only be called by the current owner."
      }
    },
    "version": 1
  },
  "userdoc": {
    "kind": "user",
    "methods": {},
    "version": 1
  }
}