{
  "contractName": "MasterChef",
  "abi": [
    {
      "inputs": [
        {
          "internalType": "contract KPTToken",
          "name": "_kpt",
          "type": "address"
        },
        {
          "internalType": "address",
          "name": "_devaddr",
          "type": "address"
        },
        {
          "internalType": "address",
          "name": "_feeAddress",
          "type": "address"
        },
        {
          "internalType": "uint256",
          "name": "_kptPerBlock",
          "type": "uint256"
        },
        {
          "internalType": "uint256",
          "name": "_startBlock",
          "type": "uint256"
        }
      ],
      "stateMutability": "nonpayable",
      "type": "constructor"
    },
    {
      "anonymous": false,
      "inputs": [
        {
          "indexed": true,
          "internalType": "address",
          "name": "user",
          "type": "address"
        },
        {
          "indexed": true,
          "internalType": "uint256",
          "name": "pid",
          "type": "uint256"
        },
        {
          "indexed": false,
          "internalType": "uint256",
          "name": "amount",
          "type": "uint256"
        }
      ],
      "name": "Deposit",
      "type": "event"
    },
    {
      "anonymous": false,
      "inputs": [
        {
          "indexed": true,
          "internalType": "address",
          "name": "user",
          "type": "address"
        },
        {
          "indexed": true,
          "internalType": "uint256",
          "name": "pid",
          "type": "uint256"
        },
        {
          "indexed": false,
          "internalType": "uint256",
          "name": "amount",
          "type": "uint256"
        }
      ],
      "name": "EmergencyWithdraw",
      "type": "event"
    },
    {
      "anonymous": false,
      "inputs": [
        {
          "indexed": true,
          "internalType": "address",
          "name": "previousOwner",
          "type": "address"
        },
        {
          "indexed": true,
          "internalType": "address",
          "name": "newOwner",
          "type": "address"
        }
      ],
      "name": "OwnershipTransferred",
      "type": "event"
    },
    {
      "anonymous": false,
      "inputs": [
        {
          "indexed": true,
          "internalType": "address",
          "name": "user",
          "type": "address"
        },
        {
          "indexed": true,
          "internalType": "uint256",
          "name": "pid",
          "type": "uint256"
        },
        {
          "indexed": false,
          "internalType": "uint256",
          "name": "amount",
          "type": "uint256"
        }
      ],
      "name": "Withdraw",
      "type": "event"
    },
    {
      "inputs": [],
      "name": "BONUS_MULTIPLIER",
      "outputs": [
        {
          "internalType": "uint256",
          "name": "",
          "type": "uint256"
        }
      ],
      "stateMutability": "view",
      "type": "function",
      "constant": true
    },
    {
      "inputs": [],
      "name": "devaddr",
      "outputs": [
        {
          "internalType": "address",
          "name": "",
          "type": "address"
        }
      ],
      "stateMutability": "view",
      "type": "function",
      "constant": true
    },
    {
      "inputs": [],
      "name": "feeAddress",
      "outputs": [
        {
          "internalType": "address",
          "name": "",
          "type": "address"
        }
      ],
      "stateMutability": "view",
      "type": "function",
      "constant": true
    },
    {
      "inputs": [],
      "name": "kpt",
      "outputs": [
        {
          "internalType": "contract KPTToken",
          "name": "",
          "type": "address"
        }
      ],
      "stateMutability": "view",
      "type": "function",
      "constant": true
    },
    {
      "inputs": [],
      "name": "kptPerBlock",
      "outputs": [
        {
          "internalType": "uint256",
          "name": "",
          "type": "uint256"
        }
      ],
      "stateMutability": "view",
      "type": "function",
      "constant": true
    },
    {
      "inputs": [],
      "name": "migrator",
      "outputs": [
        {
          "internalType": "contract IMigratorChef",
          "name": "",
          "type": "address"
        }
      ],
      "stateMutability": "view",
      "type": "function",
      "constant": true
    },
    {
      "inputs": [],
      "name": "owner",
      "outputs": [
        {
          "internalType": "address",
          "name": "",
          "type": "address"
        }
      ],
      "stateMutability": "view",
      "type": "function",
      "constant": true
    },
    {
      "inputs": [
        {
          "internalType": "uint256",
          "name": "",
          "type": "uint256"
        }
      ],
      "name": "poolInfo",
      "outputs": [
        {
          "internalType": "contract IBEP20",
          "name": "lpToken",
          "type": "address"
        },
        {
          "internalType": "uint256",
          "name": "allocPoint",
          "type": "uint256"
        },
        {
          "internalType": "uint256",
          "name": "lastRewardBlock",
          "type": "uint256"
        },
        {
          "internalType": "uint256",
          "name": "accKPTPerShare",
          "type": "uint256"
        },
        {
          "internalType": "uint16",
          "name": "depositFeeBP",
          "type": "uint16"
        }
      ],
      "stateMutability": "view",
      "type": "function",
      "constant": true
    },
    {
      "inputs": [],
      "name": "renounceOwnership",
      "outputs": [],
      "stateMutability": "nonpayable",
      "type": "function"
    },
    {
      "inputs": [],
      "name": "startBlock",
      "outputs": [
        {
          "internalType": "uint256",
          "name": "",
          "type": "uint256"
        }
      ],
      "stateMutability": "view",
      "type": "function",
      "constant": true
    },
    {
      "inputs": [],
      "name": "totalAllocPoint",
      "outputs": [
        {
          "internalType": "uint256",
          "name": "",
          "type": "uint256"
        }
      ],
      "stateMutability": "view",
      "type": "function",
      "constant": true
    },
    {
      "inputs": [
        {
          "internalType": "address",
          "name": "newOwner",
          "type": "address"
        }
      ],
      "name": "transferOwnership",
      "outputs": [],
      "stateMutability": "nonpayable",
      "type": "function"
    },
    {
      "inputs": [
        {
          "internalType": "uint256",
          "name": "",
          "type": "uint256"
        },
        {
          "internalType": "address",
          "name": "",
          "type": "address"
        }
      ],
      "name": "userInfo",
      "outputs": [
        {
          "internalType": "uint256",
          "name": "amount",
          "type": "uint256"
        },
        {
          "internalType": "uint256",
          "name": "rewardDebt",
          "type": "uint256"
        }
      ],
      "stateMutability": "view",
      "type": "function",
      "constant": true
    },
    {
      "inputs": [],
      "name": "poolLength",
      "outputs": [
        {
          "internalType": "uint256",
          "name": "",
          "type": "uint256"
        }
      ],
      "stateMutability": "view",
      "type": "function",
      "constant": true
    },
    {
      "inputs": [
        {
          "internalType": "uint256",
          "name": "_allocPoint",
          "type": "uint256"
        },
        {
          "internalType": "contract IBEP20",
          "name": "_lpToken",
          "type": "address"
        },
        {
          "internalType": "uint16",
          "name": "_depositFeeBP",
          "type": "uint16"
        },
        {
          "internalType": "bool",
          "name": "_withUpdate",
          "type": "bool"
        }
      ],
      "name": "add",
      "outputs": [],
      "stateMutability": "nonpayable",
      "type": "function"
    },
    {
      "inputs": [
        {
          "internalType": "uint256",
          "name": "_pid",
          "type": "uint256"
        },
        {
          "internalType": "uint256",
          "name": "_allocPoint",
          "type": "uint256"
        },
        {
          "internalType": "uint16",
          "name": "_depositFeeBP",
          "type": "uint16"
        },
        {
          "internalType": "bool",
          "name": "_withUpdate",
          "type": "bool"
        }
      ],
      "name": "set",
      "outputs": [],
      "stateMutability": "nonpayable",
      "type": "function"
    },
    {
      "inputs": [
        {
          "internalType": "contract IMigratorChef",
          "name": "_migrator",
          "type": "address"
        }
      ],
      "name": "setMigrator",
      "outputs": [],
      "stateMutability": "nonpayable",
      "type": "function"
    },
    {
      "inputs": [
        {
          "internalType": "uint256",
          "name": "_pid",
          "type": "uint256"
        }
      ],
      "name": "migrate",
      "outputs": [],
      "stateMutability": "nonpayable",
      "type": "function"
    },
    {
      "inputs": [
        {
          "internalType": "uint256",
          "name": "_from",
          "type": "uint256"
        },
        {
          "internalType": "uint256",
          "name": "_to",
          "type": "uint256"
        }
      ],
      "name": "getMultiplier",
      "outputs": [
        {
          "internalType": "uint256",
          "name": "",
          "type": "uint256"
        }
      ],
      "stateMutability": "view",
      "type": "function",
      "constant": true
    },
    {
      "inputs": [
        {
          "internalType": "uint256",
          "name": "_pid",
          "type": "uint256"
        },
        {
          "internalType": "address",
          "name": "_user",
          "type": "address"
        }
      ],
      "name": "pendingKPT",
      "outputs": [
        {
          "internalType": "uint256",
          "name": "",
          "type": "uint256"
        }
      ],
      "stateMutability": "view",
      "type": "function",
      "constant": true
    },
    {
      "inputs": [],
      "name": "massUpdatePools",
      "outputs": [],
      "stateMutability": "nonpayable",
      "type": "function"
    },
    {
      "inputs": [
        {
          "internalType": "uint256",
          "name": "_pid",
          "type": "uint256"
        }
      ],
      "name": "updatePool",
      "outputs": [],
      "stateMutability": "nonpayable",
      "type": "function"
    },
    {
      "inputs": [
        {
          "internalType": "uint256",
          "name": "_pid",
          "type": "uint256"
        },
        {
          "internalType": "uint256",
          "name": "_amount",
          "type": "uint256"
        }
      ],
      "name": "deposit",
      "outputs": [],
      "stateMutability": "nonpayable",
      "type": "function"
    },
    {
      "inputs": [
        {
          "internalType": "uint256",
          "name": "_pid",
          "type": "uint256"
        },
        {
          "internalType": "uint256",
          "name": "_amount",
          "type": "uint256"
        }
      ],
      "name": "withdraw",
      "outputs": [],
      "stateMutability": "nonpayable",
      "type": "function"
    },
    {
      "inputs": [
        {
          "internalType": "uint256",
          "name": "_pid",
          "type": "uint256"
        }
      ],
      "name": "emergencyWithdraw",
      "outputs": [],
      "stateMutability": "nonpayable",
      "type": "function"
    },
    {
      "inputs": [
        {
          "internalType": "address",
          "name": "_devaddr",
          "type": "address"
        }
      ],
      "name": "dev",
      "outputs": [],
      "stateMutability": "nonpayable",
      "type": "function"
    },
    {
      "inputs": [
        {
          "internalType": "address",
          "name": "_feeAddress",
          "type": "address"
        }
      ],
      "name": "setFeeAddress",
      "outputs": [],
      "stateMutability": "nonpayable",
      "type": "function"
    },
    {
      "inputs": [
        {
          "internalType": "uint256",
          "name": "_kptPerBlock",
          "type": "uint256"
        }
      ],
      "name": "updateEmissionRate",
      "outputs": [],
      "stateMutability": "nonpayable",
      "type": "function"
    }
  ],
  "bytecode": "0x6080604052600060085534801561001557600080fd5b506040516120a93803806120a9833981810160405260a081101561003857600080fd5b5080516020820151604083015160608401516080909401519293919290919060006100616100f7565b600080546001600160a01b0319166001600160a01b0383169081178255604051929350917f8be0079c531659141344cd1fd0a4f28419497f9722a3daafe3b4186f6b6457e0908290a350600180546001600160a01b03199081166001600160a01b0397881617909155600280548216958716959095179094556005805490941692909416919091179091556003556009556100fb565b3390565b611f9f8061010a6000396000f3fe608060405234801561001057600080fd5b50600436106101c45760003560e01c80637cd07e47116100f957806393f1a40b11610097578063e2bbb15811610071578063e2bbb158146104af578063e6db2713146104d2578063f2fde38b146104da578063f954625f14610500576101c4565b806393f1a40b1461042d578063d49e77cd14610472578063d96384221461047a576101c4565b80638aa28550116100d35780638aa28550146103d45780638d88a90e146103dc5780638da5cb5b146104025780638dbb1e3a1461040a576101c4565b80637cd07e471461036857806384e82a33146103705780638705fcd4146103ae576101c4565b8063441a3e701161016657806351eb05a61161014057806351eb05a61461031e5780635312ea8e1461033b578063630b5ba114610358578063715018a614610360576101c4565b8063441a3e70146102d6578063454b0608146102f957806348cd4cb114610316576101c4565b806317caf6f1116101a257806317caf6f11461025857806323cf311814610260578063321dfd5a1461028657806341275358146102b2576101c4565b8063081e3eda146101c95780630ba84cd2146101e35780631526fe2714610202575b600080fd5b6101d1610508565b60408051918252519081900360200190f35b610200600480360360208110156101f957600080fd5b503561050e565b005b61021f6004803603602081101561021857600080fd5b5035610573565b604080516001600160a01b039096168652602086019490945284840192909252606084015261ffff166080830152519081900360a00190f35b6101d16105bf565b6102006004803603602081101561027657600080fd5b50356001600160a01b03166105c5565b6101d16004803603604081101561029c57600080fd5b50803590602001356001600160a01b031661063f565b6102ba6107b1565b604080516001600160a01b039092168252519081900360200190f35b610200600480360360408110156102ec57600080fd5b50803590602001356107c0565b6102006004803603602081101561030f57600080fd5b5035610913565b6101d1610b88565b6102006004803603602081101561033457600080fd5b5035610b8e565b6102006004803603602081101561035157600080fd5b5035610dbe565b610200610e5a565b610200610e7d565b6102ba610f1f565b6102006004803603608081101561038657600080fd5b508035906001600160a01b036020820135169061ffff60408201351690606001351515610f2e565b610200600480360360208110156103c457600080fd5b50356001600160a01b0316611132565b6101d16111b3565b610200600480360360208110156103f257600080fd5b50356001600160a01b03166111b8565b6102ba611225565b6101d16004803603604081101561042057600080fd5b5080359060200135611234565b6104596004803603604081101561044357600080fd5b50803590602001356001600160a01b031661124c565b6040805192835260208301919091528051918290030190f35b6102ba611270565b6102006004803603608081101561049057600080fd5b5080359060208101359061ffff6040820135169060600135151561127f565b610200600480360360408110156104c557600080fd5b50803590602001356113cf565b6102ba611547565b610200600480360360208110156104f057600080fd5b50356001600160a01b0316611556565b6101d16115b7565b60065490565b6105166115bd565b6000546001600160a01b03908116911614610566576040805162461bcd60e51b81526020600482018190526024820152600080516020611f4a833981519152604482015290519081900360640190fd5b61056e610e5a565b600355565b6006818154811061058057fe5b6000918252602090912060059091020180546001820154600283015460038401546004909401546001600160a01b0390931694509092909161ffff1685565b60085481565b6105cd6115bd565b6000546001600160a01b0390811691161461061d576040805162461bcd60e51b81526020600482018190526024820152600080516020611f4a833981519152604482015290519081900360640190fd5b600480546001600160a01b0319166001600160a01b0392909216919091179055565b6000806006848154811061064f57fe5b600091825260208083208784526007825260408085206001600160a01b0389811687529084528186206005959095029092016003810154815483516370a0823160e01b815230600482015293519298509596909590949316926370a082319260248082019391829003018186803b1580156106c957600080fd5b505afa1580156106dd573d6000803e3d6000fd5b505050506040513d60208110156106f357600080fd5b505160028501549091504311801561070a57508015155b1561077657600061071f856002015443611234565b9050600061075260085461074c8860010154610746600354876115c190919063ffffffff16565b906115c1565b9061161a565b905061077161076a8461074c8464e8d4a510006115c1565b859061165c565b935050505b6107a4836001015461079e64e8d4a5100061074c8688600001546115c190919063ffffffff16565b906116b6565b9450505050505b92915050565b6005546001600160a01b031681565b6000600683815481106107cf57fe5b600091825260208083208684526007825260408085203386529092529220805460059092029092019250831115610842576040805162461bcd60e51b81526020600482015260126024820152711dda5d1a191c985dce881b9bdd0819dbdbd960721b604482015290519081900360640190fd5b61084b84610b8e565b6000610879826001015461079e64e8d4a5100061074c876003015487600001546115c190919063ffffffff16565b9050801561088b5761088b33826116f8565b83156108b557815461089d90856116b6565b825582546108b5906001600160a01b03163386611889565b600383015482546108d09164e8d4a510009161074c916115c1565b6001830155604080518581529051869133917ff279e6a1f5e320cca91135676d9cb6e44ca8a08c0b88342bcdb1144f6511b5689181900360200190a35050505050565b6004546001600160a01b0316610967576040805162461bcd60e51b815260206004820152601460248201527336b4b3b930ba329d1037379036b4b3b930ba37b960611b604482015290519081900360640190fd5b60006006828154811061097657fe5b6000918252602080832060059092029091018054604080516370a0823160e01b815230600482015290519295506001600160a01b03909116939284926370a08231926024808201939291829003018186803b1580156109d457600080fd5b505afa1580156109e8573d6000803e3d6000fd5b505050506040513d60208110156109fe57600080fd5b5051600454909150610a1d906001600160a01b038481169116836118db565b6000600460009054906101000a90046001600160a01b03166001600160a01b031663ce5494bb846040518263ffffffff1660e01b815260040180826001600160a01b03168152602001915050602060405180830381600087803b158015610a8357600080fd5b505af1158015610a97573d6000803e3d6000fd5b505050506040513d6020811015610aad57600080fd5b5051604080516370a0823160e01b815230600482015290519192506001600160a01b038316916370a0823191602480820192602092909190829003018186803b158015610af957600080fd5b505afa158015610b0d573d6000803e3d6000fd5b505050506040513d6020811015610b2357600080fd5b50518214610b67576040805162461bcd60e51b815260206004820152600c60248201526b1b5a59dc985d194e8818985960a21b604482015290519081900360640190fd5b83546001600160a01b0319166001600160a01b039190911617909255505050565b60095481565b600060068281548110610b9d57fe5b9060005260206000209060050201905080600201544311610bbe5750610dbb565b8054604080516370a0823160e01b815230600482015290516000926001600160a01b0316916370a08231916024808301926020929190829003018186803b158015610c0857600080fd5b505afa158015610c1c573d6000803e3d6000fd5b505050506040513d6020811015610c3257600080fd5b50519050801580610c4557506001820154155b15610c57575043600290910155610dbb565b6000610c67836002015443611234565b90506000610c8e60085461074c8660010154610746600354876115c190919063ffffffff16565b6001546002549192506001600160a01b03908116916340c10f199116610cb584600a61161a565b6040518363ffffffff1660e01b815260040180836001600160a01b0316815260200182815260200192505050600060405180830381600087803b158015610cfb57600080fd5b505af1158015610d0f573d6000803e3d6000fd5b5050600154604080516340c10f1960e01b81523060048201526024810186905290516001600160a01b0390921693506340c10f19925060448082019260009290919082900301818387803b158015610d6657600080fd5b505af1158015610d7a573d6000803e3d6000fd5b50505050610da8610d9d8461074c64e8d4a51000856115c190919063ffffffff16565b60038601549061165c565b6003850155505043600290920191909155505b50565b600060068281548110610dcd57fe5b600091825260208083208584526007825260408085203380875293528420805485825560018201959095556005909302018054909450919291610e1d916001600160a01b03919091169083611889565b604080518281529051859133917fbb757047c2b5f3974fe26b7c10f732e7bce710b0952a71082702781e62ae05959181900360200190a350505050565b60065460005b81811015610e7957610e7181610b8e565b600101610e60565b5050565b610e856115bd565b6000546001600160a01b03908116911614610ed5576040805162461bcd60e51b81526020600482018190526024820152600080516020611f4a833981519152604482015290519081900360640190fd5b600080546040516001600160a01b03909116907f8be0079c531659141344cd1fd0a4f28419497f9722a3daafe3b4186f6b6457e0908390a3600080546001600160a01b0319169055565b6004546001600160a01b031681565b610f366115bd565b6000546001600160a01b03908116911614610f86576040805162461bcd60e51b81526020600482018190526024820152600080516020611f4a833981519152604482015290519081900360640190fd5b6127108261ffff161115610fcb5760405162461bcd60e51b8152600401808060200182810382526025815260200180611e596025913960400191505060405180910390fd5b8015610fd957610fd9610e5a565b60006009544311610fec57600954610fee565b435b600854909150610ffe908661165c565b6008556040805160a0810182526001600160a01b0395861681526020810196875290810191825260006060820181815261ffff9586166080840190815260068054600181018255935292517ff652222313e28459528d920b65115c16c04f3efc82aaedc97be59f3f377c0d3f600590930292830180546001600160a01b031916919098161790965595517ff652222313e28459528d920b65115c16c04f3efc82aaedc97be59f3f377c0d4087015590517ff652222313e28459528d920b65115c16c04f3efc82aaedc97be59f3f377c0d4186015592517ff652222313e28459528d920b65115c16c04f3efc82aaedc97be59f3f377c0d428501555090517ff652222313e28459528d920b65115c16c04f3efc82aaedc97be59f3f377c0d43909201805461ffff191692909116919091179055565b6005546001600160a01b03163314611191576040805162461bcd60e51b815260206004820152601860248201527f736574466565416464726573733a20464f5242494444454e0000000000000000604482015290519081900360640190fd5b600580546001600160a01b0319166001600160a01b0392909216919091179055565b600181565b6002546001600160a01b03163314611203576040805162461bcd60e51b81526020600482015260096024820152686465763a207775743f60b81b604482015290519081900360640190fd5b600280546001600160a01b0319166001600160a01b0392909216919091179055565b6000546001600160a01b031690565b6000611245600161074684866116b6565b9392505050565b60076020908152600092835260408084209091529082529020805460019091015482565b6002546001600160a01b031681565b6112876115bd565b6000546001600160a01b039081169116146112d7576040805162461bcd60e51b81526020600482018190526024820152600080516020611f4a833981519152604482015290519081900360640190fd5b6127108261ffff16111561131c5760405162461bcd60e51b8152600401808060200182810382526025815260200180611f256025913960400191505060405180910390fd5b801561132a5761132a610e5a565b611367836113616006878154811061133e57fe5b9060005260206000209060050201600101546008546116b690919063ffffffff16565b9061165c565b600881905550826006858154811061137b57fe5b906000526020600020906005020160010181905550816006858154811061139e57fe5b906000526020600020906005020160040160006101000a81548161ffff021916908361ffff16021790555050505050565b6000600683815481106113de57fe5b6000918252602080832086845260078252604080852033865290925292206005909102909101915061140f84610b8e565b805415611458576000611444826001015461079e64e8d4a5100061074c876003015487600001546115c190919063ffffffff16565b905080156114565761145633826116f8565b505b82156114ea578154611475906001600160a01b03163330866119ee565b600482015461ffff16156114db5760048201546000906114a2906127109061074c90879061ffff166115c1565b60055484549192506114c1916001600160a01b03908116911683611889565b81546114d390829061079e908761165c565b8255506114ea565b80546114e7908461165c565b81555b600382015481546115059164e8d4a510009161074c916115c1565b6001820155604080518481529051859133917f90890809c654f11d6e72a28fa60149770a0d11ec6c92319d6ceb2bb0a4ea1a159181900360200190a350505050565b6001546001600160a01b031681565b61155e6115bd565b6000546001600160a01b039081169116146115ae576040805162461bcd60e51b81526020600482018190526024820152600080516020611f4a833981519152604482015290519081900360640190fd5b610dbb81611a4e565b60035481565b3390565b6000826115d0575060006107ab565b828202828482816115dd57fe5b04146112455760405162461bcd60e51b8152600401808060200182810382526021815260200180611ece6021913960400191505060405180910390fd5b600061124583836040518060400160405280601a81526020017f536166654d6174683a206469766973696f6e206279207a65726f000000000000815250611aee565b600082820183811015611245576040805162461bcd60e51b815260206004820152601b60248201527f536166654d6174683a206164646974696f6e206f766572666c6f770000000000604482015290519081900360640190fd5b600061124583836040518060400160405280601e81526020017f536166654d6174683a207375627472616374696f6e206f766572666c6f770000815250611b90565b600154604080516370a0823160e01b815230600482015290516000926001600160a01b0316916370a08231916024808301926020929190829003018186803b15801561174357600080fd5b505afa158015611757573d6000803e3d6000fd5b505050506040513d602081101561176d57600080fd5b5051905080821115611801576001546040805163a9059cbb60e01b81526001600160a01b038681166004830152602482018590529151919092169163a9059cbb9160448083019260209291908290030181600087803b1580156117cf57600080fd5b505af11580156117e3573d6000803e3d6000fd5b505050506040513d60208110156117f957600080fd5b506118849050565b6001546040805163a9059cbb60e01b81526001600160a01b038681166004830152602482018690529151919092169163a9059cbb9160448083019260209291908290030181600087803b15801561185757600080fd5b505af115801561186b573d6000803e3d6000fd5b505050506040513d602081101561188157600080fd5b50505b505050565b604080516001600160a01b038416602482015260448082018490528251808303909101815260649091019091526020810180516001600160e01b031663a9059cbb60e01b179052611884908490611bea565b801580611961575060408051636eb1769f60e11b81523060048201526001600160a01b03848116602483015291519185169163dd62ed3e91604480820192602092909190829003018186803b15801561193357600080fd5b505afa158015611947573d6000803e3d6000fd5b505050506040513d602081101561195d57600080fd5b5051155b61199c5760405162461bcd60e51b8152600401808060200182810382526036815260200180611eef6036913960400191505060405180910390fd5b604080516001600160a01b038416602482015260448082018490528251808303909101815260649091019091526020810180516001600160e01b031663095ea7b360e01b179052611884908490611bea565b604080516001600160a01b0380861660248301528416604482015260648082018490528251808303909101815260849091019091526020810180516001600160e01b03166323b872dd60e01b179052611a48908590611bea565b50505050565b6001600160a01b038116611a935760405162461bcd60e51b8152600401808060200182810382526026815260200180611ea86026913960400191505060405180910390fd5b600080546040516001600160a01b03808516939216917f8be0079c531659141344cd1fd0a4f28419497f9722a3daafe3b4186f6b6457e091a3600080546001600160a01b0319166001600160a01b0392909216919091179055565b60008183611b7a5760405162461bcd60e51b81526004018080602001828103825283818151815260200191508051906020019080838360005b83811015611b3f578181015183820152602001611b27565b50505050905090810190601f168015611b6c5780820380516001836020036101000a031916815260200191505b509250505060405180910390fd5b506000838581611b8657fe5b0495945050505050565b60008184841115611be25760405162461bcd60e51b8152602060048201818152835160248401528351909283926044909101919085019080838360008315611b3f578181015183820152602001611b27565b505050900390565b6060611c3f826040518060400160405280602081526020017f5361666542455032303a206c6f772d6c6576656c2063616c6c206661696c6564815250856001600160a01b0316611c9b9092919063ffffffff16565b80519091501561188457808060200190516020811015611c5e57600080fd5b50516118845760405162461bcd60e51b815260040180806020018281038252602a815260200180611e7e602a913960400191505060405180910390fd5b6060611caa8484600085611cb2565b949350505050565b6060611cbd85611e1f565b611d0e576040805162461bcd60e51b815260206004820152601d60248201527f416464726573733a2063616c6c20746f206e6f6e2d636f6e7472616374000000604482015290519081900360640190fd5b60006060866001600160a01b031685876040518082805190602001908083835b60208310611d4d5780518252601f199092019160209182019101611d2e565b6001836020036101000a03801982511681845116808217855250505050505090500191505060006040518083038185875af1925050503d8060008114611daf576040519150601f19603f3d011682016040523d82523d6000602084013e611db4565b606091505b50915091508115611dc8579150611caa9050565b805115611dd85780518082602001fd5b60405162461bcd60e51b8152602060048201818152865160248401528651879391928392604401919085019080838360008315611b3f578181015183820152602001611b27565b6000813f7fc5d2460186f7233c927e7db2dcc703c0e500b653ca82273b7bfad8045d85a470818114801590611caa57505015159291505056fe6164643a20696e76616c6964206465706f7369742066656520626173697320706f696e74735361666542455032303a204245503230206f7065726174696f6e20646964206e6f7420737563636565644f776e61626c653a206e6577206f776e657220697320746865207a65726f2061646472657373536166654d6174683a206d756c7469706c69636174696f6e206f766572666c6f775361666542455032303a20617070726f76652066726f6d206e6f6e2d7a65726f20746f206e6f6e2d7a65726f20616c6c6f77616e63657365743a20696e76616c6964206465706f7369742066656520626173697320706f696e74734f776e61626c653a2063616c6c6572206973206e6f7420746865206f776e6572a2646970667358221220e8a68960f833b53c3028593ef91a695b7573858f1e27d02330f07efd3ac7b7ad64736f6c634300060c0033",
  "immutableReferences": {},
  "source": "// SPDX-License-Identifier: MIT\n\npragma solidity 0.6.12;\n\nimport \"@pancakeswap/pancake-swap-lib/contracts/math/SafeMath.sol\";\nimport \"@pancakeswap/pancake-swap-lib/contracts/token/BEP20/IBEP20.sol\";\nimport \"@pancakeswap/pancake-swap-lib/contracts/token/BEP20/SafeBEP20.sol\";\nimport \"@pancakeswap/pancake-swap-lib/contracts/access/Ownable.sol\";\n\nimport \"./KPTToken.sol\";\n\ninterface IMigratorChef {\n    // Perform LP token migration from legacy PancakeSwap to kptSwap.\n    // Take the current LP token address and return the new LP token address.\n    // Migrator should have full access to the caller's LP token.\n    // Return the new LP token address.\n    //\n    // XXX Migrator must have allowance access to PancakeSwap LP tokens.\n    // kptSwap must mint EXACTLY the same amount of kptSwap LP tokens or\n    // else something bad will happen. Traditional PancakeSwap does not\n    // do that so be careful!\n    function migrate(IBEP20 token) external returns (IBEP20);\n}\n\n// MasterChef is the master of KPT. He can make KPT and he is a fair guy.\n//\n// Note that it's ownable and the owner wields tremendous power. The ownership\n// will be transferred to a governance smart contract once KPT is sufficiently\n// distributed and the community can show to govern itself.\n//\n// Have fun reading it. Hopefully it's bug-free. God bless.\ncontract MasterChef is Ownable {\n    using SafeMath for uint256;\n    using SafeBEP20 for IBEP20;\n\n    // Info of each user.\n    struct UserInfo {\n        uint256 amount;         // How many LP tokens the user has provided.\n        uint256 rewardDebt;     // Reward debt. See explanation below.\n        //\n        // We do some fancy math here. Basically, any point in time, the amount of KPTs\n        // entitled to a user but is pending to be distributed is:\n        //\n        //   pending reward = (user.amount * pool.accKPTPerShare) - user.rewardDebt\n        //\n        // Whenever a user deposits or withdraws LP tokens to a pool. Here's what happens:\n        //   1. The pool's `accKPTPerShare` (and `lastRewardBlock`) gets updated.\n        //   2. User receives the pending reward sent to his/her address.\n        //   3. User's `amount` gets updated.\n        //   4. User's `rewardDebt` gets updated.\n    }\n\n    // Info of each pool.\n    struct PoolInfo {\n        IBEP20 lpToken;           // Address of LP token contract.\n        uint256 allocPoint;       // How many allocation points assigned to this pool. KPTs to distribute per block.\n        uint256 lastRewardBlock;  // Last block number that KPTs distribution occurs.\n        uint256 accKPTPerShare;   // Accumulated KPTs per share, times 1e12. See below.\n        uint16 depositFeeBP;      // Deposit fee in basis points\n    }\n\n    // The KPT TOKEN!\n    KPTToken public kpt;\n    // Dev address.\n    address public devaddr;\n    // KPT tokens created per block.\n    uint256 public kptPerBlock;\n    // Bonus muliplier for early kpt makers.\n    uint256 public constant BONUS_MULTIPLIER = 1;\n    // The migrator contract. It has a lot of power. Can only be set through governance (owner).\n    IMigratorChef public migrator;\n    // Deposit Fee address\n    address public feeAddress;\n\n    // Info of each pool.\n    PoolInfo[] public poolInfo;\n    // Info of each user that stakes LP tokens.\n    mapping (uint256 => mapping (address => UserInfo)) public userInfo;\n    // Total allocation points. Must be the sum of all allocation points in all pools.\n    uint256 public totalAllocPoint = 0;\n    // The block number when KPT mining starts.\n    uint256 public startBlock;\n\n    event Deposit(address indexed user, uint256 indexed pid, uint256 amount);\n    event Withdraw(address indexed user, uint256 indexed pid, uint256 amount);\n    event EmergencyWithdraw(address indexed user, uint256 indexed pid, uint256 amount);\n\n    constructor(\n        KPTToken _kpt,\n        address _devaddr,\n        address _feeAddress,\n        uint256 _kptPerBlock,\n        uint256 _startBlock\n    ) public {\n        kpt = _kpt;\n        devaddr = _devaddr;\n        feeAddress = _feeAddress;\n        kptPerBlock = _kptPerBlock;\n        startBlock = _startBlock;\n    }\n\n    function poolLength() external view returns (uint256) {\n        return poolInfo.length;\n    }\n\n    // Add a new lp to the pool. Can only be called by the owner.\n    // XXX DO NOT add the same LP token more than once. Rewards will be messed up if you do.\n    function add(uint256 _allocPoint, IBEP20 _lpToken, uint16 _depositFeeBP, bool _withUpdate) public onlyOwner {\n        require(_depositFeeBP <= 10000, \"add: invalid deposit fee basis points\");\n        if (_withUpdate) {\n            massUpdatePools();\n        }\n        uint256 lastRewardBlock = block.number > startBlock ? block.number : startBlock;\n        totalAllocPoint = totalAllocPoint.add(_allocPoint);\n        poolInfo.push(PoolInfo({\n            lpToken: _lpToken,\n            allocPoint: _allocPoint,\n            lastRewardBlock: lastRewardBlock,\n            accKPTPerShare: 0,\n            depositFeeBP: _depositFeeBP\n        }));\n    }\n\n    // Update the given pool's KPT allocation point and deposit fee. Can only be called by the owner.\n    function set(uint256 _pid, uint256 _allocPoint, uint16 _depositFeeBP, bool _withUpdate) public onlyOwner {\n        require(_depositFeeBP <= 10000, \"set: invalid deposit fee basis points\");\n        if (_withUpdate) {\n            massUpdatePools();\n        }\n        totalAllocPoint = totalAllocPoint.sub(poolInfo[_pid].allocPoint).add(_allocPoint);\n        poolInfo[_pid].allocPoint = _allocPoint;\n        poolInfo[_pid].depositFeeBP = _depositFeeBP;\n    }\n\n    // Set the migrator contract. Can only be called by the owner.\n    function setMigrator(IMigratorChef _migrator) public onlyOwner {\n        migrator = _migrator;\n    }\n\n    // Migrate lp token to another lp contract. Can be called by anyone. We trust that migrator contract is good.\n    function migrate(uint256 _pid) public {\n        require(address(migrator) != address(0), \"migrate: no migrator\");\n        PoolInfo storage pool = poolInfo[_pid];\n        IBEP20 lpToken = pool.lpToken;\n        uint256 bal = lpToken.balanceOf(address(this));\n        lpToken.safeApprove(address(migrator), bal);\n        IBEP20 newLpToken = migrator.migrate(lpToken);\n        require(bal == newLpToken.balanceOf(address(this)), \"migrate: bad\");\n        pool.lpToken = newLpToken;\n    }\n\n    // Return reward multiplier over the given _from to _to block.\n    function getMultiplier(uint256 _from, uint256 _to) public view returns (uint256) {\n        return _to.sub(_from).mul(BONUS_MULTIPLIER);\n    }\n\n    // View function to see pending KPTs on frontend.\n    function pendingKPT(uint256 _pid, address _user) external view returns (uint256) {\n        PoolInfo storage pool = poolInfo[_pid];\n        UserInfo storage user = userInfo[_pid][_user];\n        uint256 accKPTPerShare = pool.accKPTPerShare;\n        uint256 lpSupply = pool.lpToken.balanceOf(address(this));\n        if (block.number > pool.lastRewardBlock && lpSupply != 0) {\n            uint256 multiplier = getMultiplier(pool.lastRewardBlock, block.number);\n            uint256 kptReward = multiplier.mul(kptPerBlock).mul(pool.allocPoint).div(totalAllocPoint);\n            accKPTPerShare = accKPTPerShare.add(kptReward.mul(1e12).div(lpSupply));\n        }\n        return user.amount.mul(accKPTPerShare).div(1e12).sub(user.rewardDebt);\n    }\n\n    // Update reward variables for all pools. Be careful of gas spending!\n    function massUpdatePools() public {\n        uint256 length = poolInfo.length;\n        for (uint256 pid = 0; pid < length; ++pid) {\n            updatePool(pid);\n        }\n    }\n\n    // Update reward variables of the given pool to be up-to-date.\n    function updatePool(uint256 _pid) public {\n        PoolInfo storage pool = poolInfo[_pid];\n        if (block.number <= pool.lastRewardBlock) {\n            return;\n        }\n        uint256 lpSupply = pool.lpToken.balanceOf(address(this));\n        if (lpSupply == 0 || pool.allocPoint == 0) {\n            pool.lastRewardBlock = block.number;\n            return;\n        }\n        uint256 multiplier = getMultiplier(pool.lastRewardBlock, block.number);\n        uint256 kptReward = multiplier.mul(kptPerBlock).mul(pool.allocPoint).div(totalAllocPoint);\n        kpt.mint(devaddr, kptReward.div(10));\n        kpt.mint(address(this), kptReward);\n        pool.accKPTPerShare = pool.accKPTPerShare.add(kptReward.mul(1e12).div(lpSupply));\n        pool.lastRewardBlock = block.number;\n    }\n\n    // Deposit LP tokens to MasterChef for KPT allocation.\n    function deposit(uint256 _pid, uint256 _amount) public {\n        PoolInfo storage pool = poolInfo[_pid];\n        UserInfo storage user = userInfo[_pid][msg.sender];\n        updatePool(_pid);\n        if (user.amount > 0) {\n            uint256 pending = user.amount.mul(pool.accKPTPerShare).div(1e12).sub(user.rewardDebt);\n            if(pending > 0) {\n                safeKPTTransfer(msg.sender, pending);\n            }\n        }\n        if(_amount > 0) {\n            pool.lpToken.safeTransferFrom(address(msg.sender), address(this), _amount);\n            if(pool.depositFeeBP > 0){\n                uint256 depositFee = _amount.mul(pool.depositFeeBP).div(10000);\n                pool.lpToken.safeTransfer(feeAddress, depositFee);\n                user.amount = user.amount.add(_amount).sub(depositFee);\n            }else{\n                user.amount = user.amount.add(_amount);\n            }\n        }\n        user.rewardDebt = user.amount.mul(pool.accKPTPerShare).div(1e12);\n        emit Deposit(msg.sender, _pid, _amount);\n    }\n\n    // Withdraw LP tokens from MasterChef.\n    function withdraw(uint256 _pid, uint256 _amount) public {\n        PoolInfo storage pool = poolInfo[_pid];\n        UserInfo storage user = userInfo[_pid][msg.sender];\n        require(user.amount >= _amount, \"withdraw: not good\");\n        updatePool(_pid);\n        uint256 pending = user.amount.mul(pool.accKPTPerShare).div(1e12).sub(user.rewardDebt);\n        if(pending > 0) {\n            safeKPTTransfer(msg.sender, pending);\n        }\n        if(_amount > 0) {\n            user.amount = user.amount.sub(_amount);\n            pool.lpToken.safeTransfer(address(msg.sender), _amount);\n        }\n        user.rewardDebt = user.amount.mul(pool.accKPTPerShare).div(1e12);\n        emit Withdraw(msg.sender, _pid, _amount);\n    }\n\n    // Withdraw without caring about rewards. EMERGENCY ONLY.\n    function emergencyWithdraw(uint256 _pid) public {\n        PoolInfo storage pool = poolInfo[_pid];\n        UserInfo storage user = userInfo[_pid][msg.sender];\n        uint256 amount = user.amount;\n        user.amount = 0;\n        user.rewardDebt = 0;\n        pool.lpToken.safeTransfer(address(msg.sender), amount);\n        emit EmergencyWithdraw(msg.sender, _pid, amount);\n    }\n\n    // Safe kpt transfer function, just in case if rounding error causes pool to not have enough KPTs.\n    function safeKPTTransfer(address _to, uint256 _amount) internal {\n        uint256 kptBal = kpt.balanceOf(address(this));\n        if (_amount > kptBal) {\n            kpt.transfer(_to, kptBal);\n        } else {\n            kpt.transfer(_to, _amount);\n        }\n    }\n\n    // Update dev address by the previous dev.\n    function dev(address _devaddr) public {\n        require(msg.sender == devaddr, \"dev: wut?\");\n        devaddr = _devaddr;\n    }\n\n    function setFeeAddress(address _feeAddress) public{\n        require(msg.sender == feeAddress, \"setFeeAddress: FORBIDDEN\");\n        feeAddress = _feeAddress;\n    }\n\n    //Pancake has to add hidden dummy pools inorder to alter the emission, here we make it simple and transparent to all.\n    function updateEmissionRate(uint256 _kptPerBlock) public onlyOwner {\n        massUpdatePools();\n        kptPerBlock = _kptPerBlock;\n    }\n}",
  "sourcePath": "/Users/zagj/zn-project/ETH/krypton/contracts/contracts/MasterKPT.sol",
  "compiler": {
    "name": "solc",
    "version": "0.6.12+commit.27d51765.Emscripten.clang"
  },
  "schemaVersion": "3.2.3",
  "updatedAt": "2021-03-02T04:34:59.462Z",
  "networkType": "ethereum",
  "devdoc": {
    "kind": "dev",
    "methods": {
      "owner()": {
        "details": "Returns the address of the current owner."
      },
      "renounceOwnership()": {
        "details": "Leaves the contract without owner. It will not be possible to call `onlyOwner` functions anymore. Can only be called by the current owner. NOTE: Renouncing ownership will leave the contract without an owner, thereby removing any functionality that is only available to the owner."
      },
      "transferOwnership(address)": {
        "details": "Transfers ownership of the contract to a new account (`newOwner`). Can only be called by the current owner."
      }
    },
    "version": 1
  },
  "userdoc": {
    "kind": "user",
    "methods": {},
    "version": 1
  }
}